:1000000000000020FD040000DF480000E54800007B
:10001000EB480000F1480000F74800000000000035
:100020000000000000000000000000006D0500005E
:10003000FD480000000000001306000073060000E9
:100040009D470000AB470000B9470000C7470000CC
:10005000D5470000E3470000F1470000FF470000DC
:100060000D4800001B4800002948000037480000E8
:100070004548000053480000614800006F480000F8
:100080007D48000003490000094900000F490000B5
:10009000154900001B4900002149000027490000C4
:1000A0002D49000033490000394900003F49000054
:1000B000454900004B490000514900008B480000B1
:1000C00057490000994800005D490000A74800001A
:1000D00063490000B5480000694900006F4900000D
:1000E000754900007B4900008149000087490000F4
:1000F0008D49000093490000994900009F49000084
:100100000D0500000D0500000D0500000D050000A7
:10011000A5490000AB490000B1490000B749000003
:10012000BD490000C3490000C9490000CF49000093
:10013000D5490000DB490000E1490000E749000023
:10014000ED490000F3490000C3480000F9490000F0
:10015000D1480000FF490000054A00000B4A00009A
:10016000114A0000174A00001D4A0000234A0000FF
:10017000294A00002F4A0000354A00003B4A00008F
:10018000414A00000D0500000D0500000D050000AE
:100190000D0500000D0500000D0500000D05000017
:1001A0000D0500000D0500000D0500000D05000007
:1001B0000D0500000D0500000D0500000D050000F7
:1001C0000D0500000D0500000D0500000D050000E7
:1003F0000D0500000D0500000D050000FFFFFFFFCB
:10040000FFFFFFFFFFFFFFFFFFFFFFFFFEFFFFFFFD
:1004400010B5054C237833B9044B13B10448AFF30E
:1004500000800123237010BD600E0020000000000A
:1004600020BB000008B5034B1BB103490348AFF3A1
:10047000008008BD00000000640E002020BB0000CA
:10048000A3F5803A704700BF174B002B08BF134BF2
:100490009D46FFF7F5FF00218B460F461348144A8F
:1004A000121A08F073FA0E4B002B00D098470D4B30
:1004B000002B00D098470020002104000D000D48BB
:1004C000002802D00C4807F03DFF07F081FF200014
:1004D000290002F0DFFA07F041FF00BF000008002A
:1004E00000000000C94B000000000020600E00204A
:1004F000C8400020458300007D83000072B603F0F1
:100500007DFE03F013FE62B6FFF7BEFFFFF7FEBFEE
:1005100080F309887047EFF309807047684680F3DD
:1005200009885A480078C00714BF0220032080F3CE
:1005300014887047DFF858C1EFF305831B0618BF16
:100540006047EFF31483DB0708BF604700DF7047A5
:10055000DFF840C1EFF305831B0618BF6047EFF3D8
:100560001483DB0708BF604700DF7047EFF30980A3
:10057000816911F8021CE1BB90E80F1010B5E0474B
:10058000BDE81040EFF3098C8CE80700424B93E87C
:100590000600914208BF704741B91EF0100F16D1F6
:1005A0003E49086820F00100086010E01EF0100FBE
:1005B00006BF2CED108A0120002081F825002CE9CF
:1005C000F00FC1F828C00CB405F086FD0CBC1A6011
:1005D000D2F828C0BCE8F00F92F8250000280EBF22
:1005E0006FF0020E6FF0120EBCEC108A8CF30988CB
:1005F000704710B52A4A1268914209D8294C54F81C
:10060000214090E80F10A047EFF3098C8CE80F0011
:1006100010BD10B505F0D2FCBDE810401E4B93E8AC
:100620000600914208BF7047EFF3098C1EF0100FCF
:1006300006BF2CED108A0120002081F825002CE94E
:10064000F00FC1F828C00CB405F046FD0CBC1A60D0
:10065000D2F828C0BCE8F00F92F8250000280EBFA1
:100660006FF0020E6FF0120EBCEC108A8CF309884A
:10067000704710B505F012FDFFF7CEBF10B505F0BD
:100680000BFD05F00BFDFFF7C7BF0000DCAF00005E
:1006900049590000655900006440002034EF00E033
:1006A00000000000FCFFFFFF81F0004102E000BFFE
:1006B00083F0004330B54FEA41044FEA430594EA22
:1006C000050F08BF90EA020F1FBF54EA000C55EA5D
:1006D000020C7FEA645C7FEA655C00F0E2804FEA2E
:1006E0005454D4EB5555B8BF6D420CDD2C4480EA10
:1006F000020281EA030382EA000083EA010180EA40
:10070000020281EA0303362D88BF30BD11F0004F8D
:100710004FEA01314FF4801C4CEA113102D04042C3
:1007200061EB410113F0004F4FEA03334CEA1333FE
:1007300002D0524263EB430394EA050F00F0A78016
:10074000A4F10104D5F1200E0DDB02FA0EFC22FA11
:1007500005F2801841F1000103FA0EF2801843FA05
:1007600005F359410EE0A5F120050EF1200E012AF6
:1007700003FA0EFC28BF4CF0020C43FA05F3C01834
:1007800051EBE37101F0004507D54FF0000EDCF1AD
:10079000000C7EEB00006EEB0101B1F5801F1BD356
:1007A000B1F5001F0CD349085FEA30004FEA3C0C5A
:1007B00004F101044FEA445212F5800F80F09A8050
:1007C000BCF1004F08BF5FEA500C50F1000041EB54
:1007D000045141EA050130BD5FEA4C0C404141EB58
:1007E0000101013C28BFB1F5801FE9D291F0000F53
:1007F00004BF01460020B1FA81F308BF2033A3F102
:100800000B03B3F120020CDA0C3208DD02F1140CF8
:10081000C2F10C0201FA0CF021FA02F10CE002F133
:100820001402D8BFC2F1200C01FA02F120FA0CFC2C
:10083000DCBF41EA0C019040E41AA2BF01EB045175
:10084000294330BD6FEA04041F3C1CDA0C340EDC73
:1008500004F11404C4F1200220FA04F001FA02F3B6
:1008600040EA030021FA04F345EA030130BDC4F174
:100870000C04C4F1200220FA02F001FA04F340EA69
:100880000300294630BD21FA04F0294630BD94F01A
:10089000000F83F4801306BF81F480110134013D01
:1008A0004EE77FEA645C18BF7FEA655C29D094EA72
:1008B000050F08BF90EA020F05D054EA000C04BFF0
:1008C0001946104630BD91EA030F1EBF00210020DB
:1008D00030BD5FEA545C05D14000494128BF41F07A
:1008E000004130BD14F580043CBF01F5801130BDDE
:1008F00001F0004545F0FE4141F470014FF0000069
:1009000030BD7FEA645C1ABF194610467FEA655C19
:100910001CBF0B46024650EA013406BF52EA0335BB
:1009200091EA030F41F4002130BD00BF90F0000FA9
:1009300004BF0021704730B54FF4806404F13204E5
:100940004FF000054FF0000150E700BF90F0000F9E
:1009500004BF0021704730B54FF4806404F13204C5
:1009600010F0004548BF40424FF000013EE700BF95
:1009700042004FEAE2014FEA31014FEA02701FBF25
:1009800012F07F4393F07F4F81F06051704732F057
:100990007F4208BF704793F07F4F04BF41F40021AE
:1009A000704730B54FF4607401F0004521F000410C
:1009B0001CE700BF50EA010208BF704730B54FF096
:1009C00000050AE050EA010208BF704730B511F097
:1009D000004502D5404261EB41014FF4806404F1CF
:1009E00032045FEA915C3FF4D8AE4FF003025FEA55
:1009F000DC0C18BF03325FEADC0C18BF033202EBD9
:100A0000DC02C2F1200300FA03FC20FA02F001FA32
:100A100003FE40EA0E0021FA02F11444BDE600BFD5
:100A200070B54FF0FF0C4CF4E06C1CEA11541DBF84
:100A30001CEA135594EA0C0F95EA0C0F00F0DEF84F
:100A40002C4481EA030621EA4C5123EA4C5350EA34
:100A5000013518BF52EA033541F4801143F4801385
:100A600038D0A0FB02CE4FF00005E1FB02E506F016
:100A70000042E0FB03E54FF00006E1FB03569CF06B
:100A8000000F18BF4EF0010EA4F1FF04B6F5007F71
:100A900064F5407404D25FEA4E0E6D4146EB0606E3
:100AA00042EAC62141EA55514FEAC52040EA5E506C
:100AB0004FEACE2EB4F1FD0C88BFBCF5E06F1ED816
:100AC000BEF1004F08BF5FEA500E50F1000041EB4D
:100AD000045170BD06F0004646EA010140EA0200FA
:100AE00081EA0301B4EB5C04C2BFD4EB0C0541EA1C
:100AF000045170BD41F480114FF0000E013C00F331
:100B0000AB8014F1360FDEBF002001F0004170BD54
:100B1000C4F10004203C35DA0C341BDC04F114046D
:100B2000C4F1200500FA05F320FA04F001FA05F2F9
:100B300040EA020001F0004221F0004110EBD370C6
:100B400021FA04F642EB06015EEA430E08BF20EAF2
:100B5000D37070BDC4F10C04C4F1200500FA04F395
:100B600020FA05F001FA04F240EA020001F0004127
:100B700010EBD37041F100015EEA430E08BF20EA9A
:100B8000D37070BDC4F1200500FA05F24EEA020EE2
:100B900020FA04F301FA05F243EA020321FA04F011
:100BA00001F0004121FA04F220EA020000EBD370C8
:100BB0005EEA430E08BF20EAD37070BD94F0000FC8
:100BC0000FD101F00046400041EB010111F4801FFC
:100BD00008BF013CF7D041EA060195F0000F18BFAD
:100BE000704703F00046520043EB030313F4801FE9
:100BF00008BF013DF7D043EA0603704794EA0C0FA3
:100C00000CEA135518BF95EA0C0F0CD050EA4106B8
:100C100018BF52EA4306D1D181EA030101F0004135
:100C20004FF0000070BD50EA410606BF104619465D
:100C300052EA430619D094EA0C0F02D150EA013669
:100C400013D195EA0C0F05D152EA03361CBF1046AA
:100C500019460AD181EA030101F0004141F0FE4149
:100C600041F470014FF0000070BD41F0FE4141F4CD
:100C7000780170BD70B54FF0FF0C4CF4E06C1CEACD
:100C800011541DBF1CEA135594EA0C0F95EA0C0F82
:100C900000F0A7F8A4EB050481EA030E52EA03353D
:100CA0004FEA013100F088804FEA03334FF080555E
:100CB00045EA131343EA12634FEA022245EA11158B
:100CC00045EA10654FEA00260EF000419D4208BF3C
:100CD000964244F1FD0404F5407402D25B084FEAE9
:100CE0003202B61A65EB03055B084FEA32024FF495
:100CF00080104FF4002CB6EB020E75EB030E22BFF2
:100D0000B61A754640EA0C005B084FEA3202B6EBB1
:100D1000020E75EB030E22BFB61A754640EA5C0060
:100D20005B084FEA3202B6EB020E75EB030E22BFF0
:100D3000B61A754640EA9C005B084FEA3202B6EBF1
:100D4000020E75EB030E22BFB61A754640EADC00B0
:100D500055EA060E18D04FEA051545EA16754FEA12
:100D600006164FEAC30343EA52734FEAC2025FEA30
:100D70001C1CC0D111F4801F0BD141EA00014FF0BF
:100D800000004FF0004CB6E711F4801F04BF014390
:100D90000020B4F1FD0C88BFBCF5E06F3FF6AFAEAC
:100DA000B5EB030C04BFB6EB020C5FEA500C50F13C
:100DB000000041EB045170BD0EF0004E4EEA1131BF
:100DC00014EB5C04C2BFD4EB0C0541EA045170BDC6
:100DD00041F480114FF0000E013C90E645EA060E0A
:100DE0008DE60CEA135594EA0C0F08BF95EA0C0F38
:100DF0003FF43BAF94EA0C0F0AD150EA01347FF480
:100E000034AF95EA0C0F7FF425AF104619462CE756
:100E100095EA0C0F06D152EA03353FF4FDAE1046B9
:100E2000194622E750EA410618BF52EA43067FF40A
:100E3000C5AE50EA41047FF40DAF52EA43057FF49A
:100E4000EBAE12E74FF0FF3C06E000BF4FF0010CA5
:100E500002E000BF4FF0010C4DF804CD4FEA410C09
:100E60007FEA6C5C4FEA430C18BF7FEA6C5C1BD0D6
:100E700001B050EA410C0CBF52EA430C91EA030F57
:100E800002BF90EA020F0020704710F1000F91EAB4
:100E9000030F58BF994208BF90422CBFD8176FEA82
:100EA000E37040F0010070474FEA410C7FEA6C5C50
:100EB00002D150EA013C07D14FEA430C7FEA6C5C57
:100EC000D6D152EA033CD3D05DF8040B704700BF83
:100ED0008446104662468C461946634600E000BFD1
:100EE00001B5FFF7B7FF002848BF10F1000F01BDA3
:100EF0004DF808EDFFF7F4FF0CBF012000205DF86E
:100F000008FB00BF4DF808EDFFF7EAFF34BF0120F2
:100F100000205DF808FB00BF4DF808EDFFF7E0FF8B
:100F200094BF012000205DF808FB00BF4DF808EDDC
:100F3000FFF7CEFF94BF012000205DF808FB00BF43
:100F40004DF808EDFFF7C4FF34BF012000205DF825
:100F500008FB00BF4FEA410C7FEA6C5C02D150EA0B
:100F6000013C0AD14FEA430C7FEA6C5C02D152EAA1
:100F7000033C02D14FF0000070474FF00100704772
:100F80004FEA410212F5001215D211D56FF47873B1
:100F9000B3EB625212D94FEAC12343F0004343EA54
:100FA000505311F0004F23FA02F018BF404270472F
:100FB0004FF00000704750EA013005D111F00040B9
:100FC00008BF6FF0004070474FF00000704700BF4F
:100FD0004A0011D212F5001211D20DD56FF47873B8
:100FE000B3EB62520ED44FEAC12343F0004343EA0D
:100FF000505323FA02F070474FF00000704750EA58
:10100000013002D14FF0FF3070474FF000007047C1
:101010004FEA4102B2F1E04324BFB3F5001CDCF11A
:10102000FE5C0DD901F0004C4FEAC0024CEA507052
:10103000B2F1004F40EB830008BF20F00100704781
:1010400011F0804F21D113F13872BCBF01F0004084
:10105000704741F480114FEA5252C2F11802C2F1B6
:10106000200C10FA0CF320FA02F018BF40F0010037
:101070004FEAC1234FEAD32303FA0CFC40EA0C00E9
:1010800023FA02F34FEA4303CCE77FEA625307D126
:1010900050EA01331EBF4FF0FE4040F4400070475D
:1010A00001F0004040F0FE4040F40000704700BFF7
:1010B00053B94AB9002908BF00281CBF4FF0FF31BF
:1010C0004FF0FF3001F0C0B8ADF1080C6DE904CE6F
:1010D00000F006F8DDF804E0DDE9022304B0704713
:1010E0002DE9F047089D04468C46002B40F0838094
:1010F0008A42174647D9B2FA82F242B1C2F12000C1
:1011000024FA00F09140974040EA010C94404FEAE5
:101110001748230CBCFBF8F61FFA87FE08FB16C124
:1011200043EA014306FB0EF1994209D9FB1806F187
:10113000FF3080F01981994240F21681023E3B4413
:101140005B1AA4B2B3FBF8F008FB103344EA034483
:1011500000FB0EFEA64509D93C1900F1FF3380F0D3
:101160000581A64540F2028102383C4440EA06402F
:10117000A4EB0E0400261DB1D4400023C5E90043B2
:101180003146BDE8F08702B9FFDEB2FA82F2002AEA
:1011900050D1CB1B4FEA174E1FFA87F80126B3FB3D
:1011A000FEFC210C0EFB1C3341EA034108FB0CF34F
:1011B0008B4207D979180CF1FF3002D28B4200F232
:1011C000E9808446C91AA3B2B1FBFEF00EFB1011F0
:1011D00043EA014408FB00F8A04507D93C1900F197
:1011E000FF3302D2A04500F2D9801846A4EB0804D0
:1011F00040EA0C40BFE78B4209D9002D00F0B180D6
:101200000026C5E9000130463146BDE8F087B3FA53
:1012100083F6002E4AD18B4202D3824200F2B8807C
:10122000841A61EB030101208C46002DA8D0C5E98A
:10123000004CA5E7C2F1200320FA03F6974001FA1B
:1012400002F04FEA174ED9403043030CB1FBFEF6D3
:101250001FFA87F80EFB161143EA014306FB08F15B
:10126000994204FA02F409D9FB1806F1FF3C80F018
:101270008D80994240F28A80023E3B445B1A81B2E3
:10128000B3FBFEF00EFB103341EA034100FB08F311
:101290008B4207D9791800F1FF3C73D28B4271D988
:1012A00002383944CB1A40EA064678E7C6F1200CEA
:1012B00003FA06F422FA0CF31C4320FA0CF701FAA5
:1012C00006F34FEA144E21FA0CF11F433B0CB1FB1D
:1012D000FEF91FFA84F80EFB191143EA014109FBDC
:1012E00008FA8A4502FA06F200FA06F308D96118EC
:1012F00009F1FF3048D28A4546D9A9F102092144B3
:10130000A1EB0A01BFB2B1FBFEF00EFB101147EAE0
:10131000014700FB08F8B84507D9E71900F1FF318C
:101320002ED2B8452CD90238274440EA0940A7EB11
:101330000807A0FB02894F45C64649461AD317D075
:101340005DB1B3EB0E0267EB010707FA0CFCF2404C
:101350004CEA0202F740C5E9002700263146BDE805
:10136000F0872E4628460BE70646E9E61846FDE6D6
:101370004345E5D2B8EB020E69EB04010138DFE723
:101380000846D2E760468DE78146B9E7664675E7CD
:1013900030464AE7ACF1020C394413E702383C44CA
:1013A00024E700BF03685A004CBF43F0004323F01A
:1013B00000431844704700BF2DE9F84329B34F1E7E
:1013C000044615463E464FF0000808EB060101EBC7
:1013D000D171491004EBC1094846FFF7E3FF03460A
:1013E000C80008308F42204409D0AB4209D8FFF72B
:1013F000D9FF0138A8420AD201F10108E5E7AB4262
:1014000005D9884501D04E1EDFE74FF00009484658
:10141000BDE8F883012807D0022807D0044B002834
:101420000CBF1846002070470248704702487047BA
:10143000D91A0000DD1A0000E11A000030B5234B74
:1014400083B004468D1E3BB301A92846AFF300804C
:10145000E8B101992A46FFF7AFFF0146B8B1FFF79F
:10146000A1FF4B68A064012B2BD0002B01F10400DD
:1014700023DBFFF797FF0023C4E913030368002B66
:1014800010DBFFF78FFF2061002003B030BD002389
:101490000920236103B030BD0D490E48091AC91057
:1014A0000191D7E7C3F30360FFF7B4FF0028206181
:1014B00014BF0020092003B030BD0123C4E9130389
:1014C000DCE7002323610520DFE700BF0000000008
:1014D0009CBF00000CBD00000368DA0710B504468D
:1014E00006D49B0700F1480009D500F04BFC2368A7
:1014F000590709D51A070ED5DB0613D510BD00F024
:1015000039FC23685907F5D404F1D00000F042FCFF
:1015100023681A07F0D404F5A87000F043FC236890
:10152000DB06EBD404F5E870BDE8104000F07EBCAB
:101530000346006800B11844704700BF0920704797
:10154000704700BF70B504460E46316C2046FFF769
:1015500075FF054688B9336C6361324623692146BD
:10156000012098470828F0D0072806D12846316C7A
:10157000FFF7E6FF301D00F0F1FB06F0BDFE00BFF7
:101580002DE9F0470D1D064614460FCDADF5727DD1
:101590000DF10C0CACE80F000FCDACE80F000FCD37
:1015A000ACE80F0095E80F0002ADF768D6F8188098
:1015B0008CE80F0000232B6021E02B6C73614FF44B
:1015C000F07229467AA800F041FE33697AAA3146C2
:1015D00050469847889BCDE9005821466B64814668
:1015E000334632460120B8470446E8B94FF4F0725A
:1015F0007AA9284600F02AFEB9F1080F1BD1296C00
:101600003046FFF71BFF09345FFA84FA8146002851
:10161000D3D0AB6B4AF01001CDE9005832466B6471
:1016200001203346B84708B14FF0090948460DF587
:10163000727DBDE8F087B9F1070FF5D12046296C1E
:10164000FFF77EFF03A800F089FB00BF406C7047E6
:10165000F0B5CB6B0B640E1D0F4605460FCEF9B0EF
:1016600001AC0FC40FCE0FC40FCE0FC496E80F000D
:101670004FF0FF3684E80F00009606E02B696A46BB
:10168000294698470828044608D110992846FFF7AC
:10169000D5FE0028F2D0092079B0F0BD6846FFF7EA
:1016A0001BFF062CF7D139462846FFF74BFF00BF3A
:1016B00030B4DD6BC160826119461D64002230BC0C
:1016C0005EE700BF70B5C66843690B64AEB90369D5
:1016D0000A4604460D46014602209847072805D0D1
:1016E00008280FD129462046FFF72CFF3046296CE9
:1016F000FFF726FF281D00F031FB0122FFF740FF16
:1017000006F0FAFD06F0F8FDC2681AB1CA6B0A6469
:10171000002235E79CE700BF704700BF83680146A1
:101720000BB1012018477047012912D009D873B9AD
:101730000F2A0CD800EB820218465368009A1360F7
:1017400070470339012994BF01200220704702200D
:1017500070470846704700BF10B584B0002303AC43
:101760000A4600941946FFF7DFFF039804B010BD46
:10177000012912D009D873B90F2A0CD800EB8200C6
:10178000009A12684260184670470339012994BFD5
:10179000012002207047022070470846704700BFB2
:1017A00010B584B0002303AC039200940A46194696
:1017B000FFF7DEFF04B010BDF0B5D36B1364151D49
:1017C0008C4606460FCDADF50F7D17AC0FC40FCD7F
:1017D0000FC40FCD0FC495E80F004FF0FF3784E81A
:1017E0000F006546169710E0FFF7DAFF294616A8A6
:1017F000B047034616AA6946082083B9049B984758
:10180000052804460CD0092809D026996846FFF718
:1018100015FE03466A460C2116A8002BE4D00924C5
:1018200016A8FFF759FE20460DF50F7DF0BD00BF4D
:101830002DE9F04FCC6C89B00D4654F8041B06948A
:10184000174600F003081E46002B79D00B0CDAB2C5
:1018500009048DF81D30022304EB820405918DF8F4
:101860001C302B6DB8F1020F08BFAC6B13F00103F5
:101870000CD0384605A900F073FB18B9082009B050
:10188000BDE8F08F092009B0BDE8F08FD4F800A0C2
:10189000BAF1000FEDD0019300F008030293022E7D
:1018A0004AD0B4F800A0B4F802900434AA6C29F02D
:1018B000010B0F2138469344FFF74EFF834539D87B
:1018C0002AF001025A44824294BF002001204FEACC
:1018D000490303F002030AF0010A43EA0A03012B59
:1018E00049D0022B32D0002BCCD1B8F1000F02D05E
:1018F000002840F0CD800434D4F800A0BAF1000FE5
:10190000CDD105A9384600F02BFB0028BAD1019BA8
:10191000002BB3D00F213846FFF71EFF0E210246E1
:101920003846FFF73DFF38466A4A0F21FFF738FF78
:101930000720A8E70020CAE7D4F804900834B5E7E8
:10194000090203230591ADF81C308AE7236823F0D0
:10195000004BB8F1000F45D128B1029A002A5CD0A3
:10196000BBF1000F74D0002B00DA04340BF1010B33
:1019700004EB8B04C0E7B8F1000F19D1B0B1D4E982
:101980000023991C4FEAD2723FF47CAF05F1580155
:101990000133049100F09080201DFFF7C9FD04ABD6
:1019A00001462846AFF3008000285BD10834A3E746
:1019B0000D213846D5F82090FFF7CEFE8145F5D1B0
:1019C000AB6A9C42F2D12046FFF7ECFC0F210246A5
:1019D0003846FFF7E5FE38462A460021FFF7E0FECD
:1019E000072050E70D213846D5F82090FFF7B4FEC8
:1019F000814501D02368B6E7AB6A9C42FAD1042244
:101A00000021C5E90B12A318C5F828B06B63236841
:101A10008B4259DB01230193A8E705F15803CDF868
:101A20000C8004F1040AB04691461E460DE004966F
:101A3000FFF77EFD04AB014600222846AFF300808D
:101A400009F101090AF1040AE8B9D9455046EED175
:101A500038460D21FFF780FE049B2862C5E9093452
:101A6000062010E781460D213846FFF775FEB9F1D3
:101A7000020F286225D12B46049A43F82C2F6B6263
:101A8000AC620620FFE646462368DDF80C806AE774
:101A90002046FFF787FC04340246AC632846144610
:101AA000AFF3008000283FF4EDAE384622460F2108
:101AB000FFF776FE0720E6E638460D21FFF74CFEDD
:101AC0002862049B6B62DBE70BF1010004EB8000F2
:101AD0007AE700BF000000000023A9E60123A7E683
:101AE0000223A5E62DE9F0430646C3B015461C4681
:101AF000042900F2B980DFE801F09A53B729030006
:101B0000002C40F0B180102A00F2AE800368D806A5
:101B100000F1F38020AF384600F092F9B06B00235B
:101B2000012404FA03F22A42014604D051F8042B9E
:101B300047F8232008460133042BF2D1B06338461E
:101B400000F074F9002043B0BDE8F083032C40F0AE
:101B50008B8094B204EB1243102B4FEA124500F233
:101B6000838003681F0700F1D08020AF384600F063
:101B70003BF907EBC501B56B54B10B46E81A01EB15
:101B8000C401E4001A5843F8042B8B42FAD12544CF
:101B90003846B56300F006F9002043B0BDE8F08395
:101BA000012C4FEA124895B25AD0052C5CD108EBB3
:101BB0000509B9F1200F57D8B8F10F0F77D9A94609
:101BC000002D40F08880B36B6DB320AF4FF000095B
:101BD00007EBC807043F03EBC50553F8041B47F8A0
:101BE000041FAB42F9D1B9F1000F0FD06F46414647
:101BF000102938BF102107EBC101843903EBC90557
:101C000053F8040B41F8040FAB42F9D1012C00F05A
:101C10008480B8F10F0FB56345D9B9F1000F02D038
:101C2000684600F0B7F8002043B0BDE8F083DCB9A7
:101C3000876B2346012094B206F1040C00FA03F2EC
:101C40002242394604D051F8042B4CF823200F4689
:101C50000133102BF2D115F40050E4D1B76304E046
:101C600008EB0503102B03D9022043B0BDE8F08335
:101C7000B8F10F0FF8D83368DA0706D5304623F0ED
:101C8000030340F8483B00F079F820AF384600F0F5
:101C900075F8B36B002D99D11D460435B5633846F0
:101CA00000F068F8BFE720A800F06CF8B5E7B9F1DC
:101CB000100F40D9A9F110093368D90708D523F0CE
:101CC0000103304643F0020340F8483B00F05EF861
:101CD000B9F1000F32D033685A0720D4B8F10F0F92
:101CE00025D96F463846C8F1100500F057F8002D89
:101CF000B36B7FF77CAF20AF6AE723F0100333604C
:101D000006F5E87000F09CF804E723F00803036090
:101D100000F5A87000F068F827E720AFBDE730466F
:101D200023F0040340F8D03B00F038F8D6E720A8B1
:101D300000F02CF8D5E74FF00009BDE7B8F10F0F20
:101D40003FF641AF20AF384600F020F8B36B002DCE
:101D50007FF43CAF384600F015F864E700F1340139
:101D600091E838009C46A6464CF8045D90E8FF0FC9
:101D7000E54600BD90EC210B704700BF80EC210BC5
:101D8000704700BF90EC200B704700BF80EC200B29
:101D9000704700BFD0EC200B704700BFC0EC200B99
:101DA000704700BFF0EC0201F0EC0211F0EC0221F0
:101DB000F0EC0231F0EC0241F0EC0251F0EC026187
:101DC000F0EC0271F0EC0281F0EC0291F0EC02A177
:101DD000F0EC02B1F0EC02C1F0EC02D1F0EC02E167
:101DE000F0EC02F1704700BFE0EC0201E0EC021100
:101DF000E0EC0221E0EC0231E0EC0241E0EC0251C7
:101E0000E0EC0261E0EC0271E0EC0281E0EC0291B6
:101E1000E0EC02A1E0EC02B1E0EC02C1E0EC02D1A6
:101E2000E0EC02E1E0EC02F1704700BFB0FC0181A0
:101E3000B0FC0191B0FC01A1B0FC01B1704700BF42
:101E4000A0FC0181A0FC0191A0FC01A1A0FC01B1BA
:101E5000704700BFEC4600B52DE900502DE9FF1F8B
:101E60004FF000032DE90C0001A9FFF7F1FBDDF8AD
:101E700040E012B0704700BFEC4600B52DE90050BD
:101E80002DE9FF1F4FF000032DE90C0001A9FFF71A
:101E900019FCDDF840E012B0704700BFEC4600B519
:101EA0002DE900502DE9FF1F4FF000032DE90C0034
:101EB00001A9FFF729FCDDF840E012B0704700BF30
:101EC000EC4600B52DE900502DE9FF1F4FF000034F
:101ED0002DE90C0001ABFFF7EBFBDDF840E012B0A1
:101EE000704700BFEC4600B52DE900502DE9FF1FFB
:101EF0004FF000032DE90C0001AAFFF75DFCDDF8AF
:101F000040E012B0704700BF027A7AB9437AA3B1B9
:101F10004268013B10B4437213680321141D01721F
:101F20001A024460026010BC180E70470368013A40
:101F300002721A020260180E7047B020704700BF8C
:101F400000B585B003AA0023009219460C22FFF7C2
:101F5000EBFB039805B05DF804FB00BFF0E700BFA2
:101F60002DE9F043054685B00E464FF00008304697
:101F7000FFF7CAFFB028044600F0B280070620D55C
:101F800000F0F003802B4DD0902B36D0A02B60D0EA
:101F9000B02B74D0C02B00F08B8000F0F803D02B56
:101FA0000BD100F00702013242F400220523012187
:101FB0002846FFF797FD0028D9D0092005B0BDE8D5
:101FC000F0830DF10C09002319468700CDF800902D
:101FD0000D222846FFF7A8FBFFB2039BCDF8009027
:101FE000043760064CBFDF1BFF18002319460D2283
:101FF00028460397FFF7BCFBB9E700F00D030D2B54
:10200000DBD003AF002300F00F02194600972846EB
:10201000FFF78AFB0023009719460D222846FFF799
:10202000A7FBA4E73046FFF76FFF24022043B0F57B
:10203000004FC2D004010023A2B219462846FFF780
:1020400051FD0028B9D114F4004F18BF4FF001081A
:102050008DE7C24302F007034FF47F621A41010784
:1020600002F47F624FF0000348BF42F480421946F9
:102070002846FFF737FD00283FF479AF9DE7B128E8
:1020800033D0B22800F08B80B32839D000F0FC03A5
:10209000B42B92D000F007020132012342F4002257
:1020A00019462846FFF71EFD00283FF460AF84E77D
:1020B000C62842D0C7284CD000F0F803C02B5BD014
:1020C000C82860D0C9287FF478AF3046FFF71CFFDE
:1020D000020300F00F0002F470220130024365E7B2
:1020E000B8F1000F18D0002068E73046FFF70CFF6A
:1020F000024600283FF461AF10F0F003D0D05CE757
:102100003046FFF701FF010300F00F0001F47021DA
:10211000421C01230A43C3E703AC43460E22414657
:1021200000942846FFF700FB0094284643460F2200
:102130004146FFF71DFB404640E73046FFF7E4FE0F
:10214000010300F00F0001F47021421C03230A4335
:10215000A6E73046FFF7D8FE024600283FF42DAF31
:1021600010F0F0037FF429AF04212846FFF7BAFCF2
:1021700000283FF4FCAE20E700F00F0201320323F9
:1021800042F420228CE73046FFF7BEFE00F0F0025A
:1021900000F00F031032013343EA023206E7002356
:1021A0000DF10C090D221946CDF800902846FFF7D5
:1021B000BBFA3046FFF7A8FE02064FF002070CD527
:1021C000039B00F07F00B840034430460393FFF7C1
:1021D0009BFE030607F10707F2D4039BCDF800909E
:1021E00000F07F0403F50172BC400023144419463B
:1021F0000D2228460394FFF7BBFAB8E610B5C26C6F
:1022000084B0536803248DF80C401B0202F10804CB
:102210000846D279019301A902948DF80D20FFF7A9
:102220009FFE04B010BD00BF08B5FFF797FE806C9D
:1022300008BD00BF08B5FFF791FEC06CC37902333B
:1022400000EB830008BD00BF704700BF844641EA31
:10225000000313F003036DD1403A41D351F8043B1E
:1022600040F8043B51F8043B40F8043B51F8043B70
:1022700040F8043B51F8043B40F8043B51F8043B60
:1022800040F8043B51F8043B40F8043B51F8043B50
:1022900040F8043B51F8043B40F8043B51F8043B40
:1022A00040F8043B51F8043B40F8043B51F8043B30
:1022B00040F8043B51F8043B40F8043B51F8043B20
:1022C00040F8043B51F8043B40F8043B51F8043B10
:1022D00040F8043B51F8043B40F8043B403ABDD27F
:1022E000303211D351F8043B40F8043B51F8043B21
:1022F00040F8043B51F8043B40F8043B51F8043BE0
:1023000040F8043B103AEDD20C3205D351F8043BAF
:1023100040F8043B043AF9D2043208D0D2071CBF7B
:1023200011F8013B00F8013B01D30B8803806046A4
:10233000704700BF082A13D38B078DD010F003031A
:102340008AD0C3F10403D21ADB071CBF11F8013B8A
:1023500000F8013B80D331F8023B20F8023B7BE7D9
:10236000043AD9D3013A11F8013B00F8013BF9D204
:102370000B7803704B7843708B788370604670479E
:1023800001F0FF01102A2BDB10F0070F08D010F826
:10239000013B013A8B422DD010F0070F42B3F6D12A
:1023A000F0B441EA012141EA014122F007047FF043
:1023B00000070023F0E80256083C85EA010586EA9A
:1023C000010685FA47F5A3FA87F586FA47F6A5FAD6
:1023D00087F68EB9EED1F0BC01F0FF0102F00702E2
:1023E00032B110F8013B013A83EA010313B1F8D18D
:1023F0000020704701387047002D06BF354603386E
:10240000073815F0010F07D1013015F4807F02BFA6
:10241000013015F4C03F0130F0BC0138704700BFF7
:1024200000000000000000000000000000000000AC
:10243000000000000000000000000000000000009C
:1024400090F800F06DE9024520F007016FF0000CF4
:1024500010F0070491F820F040F049804FF000049C
:102460006FF00700D1E9002391F840F000F1080077
:1024700082FA4CF2A4FA8CF283FA4CF3A2FA8CF3AF
:102480004BBBD1E9022382FA4CF200F10800A4FA16
:102490008CF283FA4CF3A2FA8CF3E3B9D1E904236A
:1024A00082FA4CF200F10800A4FA8CF283FA4CF3A1
:1024B000A2FA8CF37BB9D1E9062301F1200182FA5B
:1024C0004CF200F10800A4FA8CF283FA4CF3A2FA61
:1024D0008CF3002BC6D0002A04BF04301A4612BA6F
:1024E000B2FA82F2FDE8024500EBD2007047D1E972
:1024F000002304F00305C4F100004FEAC50514F001
:10250000040F91F840F00CFA05F562EA05021CBFD1
:1025100063EA050362464FF00004A9E780B590B076
:1025200000AF78600B46FB70FB78002B27D107F1DA
:10253000240300221A605A609A60DA601A615A61B4
:102540002D4A7B6852F833307B62012387F82830AC
:10255000012387F829304FF0FF333B6307F1240351
:10256000184604F057FD244A7B68DB00134401221F
:102570001A717B68DB00204A1344FB6336E0FB786A
:10258000012B31D107F10C0300221A605A609A60C6
:10259000DA601A615A61184A7B6852F83330FB607E
:1025A00001233B754FF0FF33BB6107F10C03184665
:1025B00004F0A2FD104A7B68DB00134402221A716A
:1025C0007B68292B0AD97B682C2B07D80A4A7B68A1
:1025D00052F833300121184604F0CAFD7B68DB0055
:1025E000054A1344FB6301E00023FB63FB6B1846C1
:1025F0004037BD4680BD00BF0000002080B586B0DA
:1026000000AF78607B683B613B69002B0BD03B6976
:102610001B79012B07D13B691B68184604F0B6FDF6
:102620000346FB7501E00023FB753B691B681B0A31
:10263000DBB2FB603B691B68DBB2BB60FB68022B53
:1026400002D1BB68062B05D0FB68002B09D1BB6803
:10265000042B06D1FB7D002B0CBF01230023DBB232
:10266000FB75FB7D18461837BD4680BD80B586B02A
:1026700000AF78600B46FB707B687B617B69002B49
:102680002FD07B691B79022B2BD17B691B681B0A1E
:10269000DBB23B617B691B68DBB2FB603B69012BF2
:1026A00005D1FB68162B08D0FB68152B05D03B69BC
:1026B000042B0FD1FB681A2B0CD17B691A68FB78AD
:1026C000012B14BF01230023DBB21946104604F08E
:1026D0004FFD06E07B691B68FA781146184604F046
:1026E00047FD00BF1837BD4680BD80B485B000AF40
:1026F00078607B68FB60FB68002B0ED0FB681B7961
:10270000022B03D1FB6800221A7106E0FB681B79DB
:10271000012B02D1FB6800221A7100BF1437BD469D
:102720005DF8047B7047000080B584B000AFF860AE
:10273000B9601346FB71BB681F2B05D90D4B0E4AC0
:10274000FF210E4805F0E0FDFB68BA6853F822301F
:1027500023F0807323F4E063FA79120202F4E0625A
:1027600043EA0201FB68BA6843F8221000BF103741
:10277000BD4680BDF8AE00008CAF000004AF000085
:1027800080B483B000AF78600B46FB707B681B6839
:1027900023F01802FB78DB0003F018031A437B6870
:1027A0001A6000BF0C37BD465DF8047B704700001F
:1027B00080B58EB000AF786187ED020B87ED001B0E
:1027C000524A7B695B01134411331B78002B40F0A4
:1027D0008780002387F82830002387F829300023DA
:1027E00087F82A308023FB62484A7B695B011344E7
:1027F0001868464A7B695B01134404331968434AED
:102800007B695B01134410331B781A46FFF78CFF7A
:102810003E4A7B695B01134408331B6807F12802B9
:102820001146184604F01EFA384A7B695B011344CE
:1028300008331B68DBB200220121184604F098FA25
:10284000324A7B695B011344113304221A702F4A08
:102850007B695B01134403F11801D7E90223C1E945
:10286000002302233B7600237B76284A7B695B01A9
:1028700013441833D3E9002310461946FEF7A8FB8A
:102880000346FB61D7E90001FEF7A2FB03463B626A
:102890000023BB841D4A7B695B01134408331B681A
:1028A0001B4A52F823303B630021386BFFF768FF67
:1028B000164A7B695B01134408331868134A7B6925
:1028C0005B0113440C331B68DAB207F11803194695
:1028D00004F0ACFA7B695B010C4A13447B630FE0A4
:1028E0000A4A7B695B01134411331B78042B05D121
:1028F0007B695B01054A13447B6301E000237B6332
:102900007B6B18463837BD4680BD00BF780100207C
:1029100020B5000080B483B000AF786000BF0C37F2
:10292000BD465DF8047B704780B58AB000AFF860A3
:1029300087ED000BFB687B627B6A002B2CD07B6AE7
:102940005B7C042B28D102233B7400237B747B6ABD
:10295000D3E9062310461946FEF73AFB03467B618E
:10296000D7E90001FEF734FB0346BB610023BB83BC
:102970007B6A9B680A4A52F823303B620021386A1E
:10298000FFF7FEFE7B6A98687B6ADB68DAB207F1C4
:102990001003194604F04AFA00BF2837BD4680BD2F
:1029A00020B5000080B485B000AF78607B68FB6024
:1029B000FB68002B06D0FB685B7C042B02D1FB6814
:1029C00000225A7400BF1437BD465DF8047B70477F
:1029D00080B483B000AF786000BF0C37BD465DF8AF
:1029E000047B704780B586B000AF7861184B1B68D8
:1029F0001B68002B0CBF01230023DBB21A46154BCA
:102A00001A7011E03B461449184602F0CEF900F066
:102A100013FD0F4B1B681B68002B14BF0123002301
:102A2000DBB21A460D4B1A700A4B1B78DBB2002B37
:102A3000E8D1084B00221A70786900F011F80020E4
:102A400002F00CF9002318461837BD4680BD00BFC0
:102A5000A0AF000038040020880E00207F0E002068
:102A600080B582B000AF7860074B01221A60074B37
:102A700000221A7001F070F8054802F083F9002373
:102A800018460837BD4680BDA40E0020380400203B
:102A9000800E002080B586B000AF7861396101F00A
:102AA0009BFC01F063FE0A4B1B6800221A6000F0D9
:102AB000CBFE00209FED070A02F022F83B460649B4
:102AC000184602F072F9002318461837BD4680BD3B
:102AD000A0AF00006F12833A800E0020F0B58BB0DB
:102AE00000AF87ED020B87ED001BD7E90223C7E992
:102AF00008234FF000024FF00003D7E90001FEF772
:102B0000F7F90346002B10D04FF000024FF00003FE
:102B1000D7E90201FEF7ECF90346002B00F0328101
:102B2000D7E90023C7E908232CE197ED020B01F058
:102B3000ABFA0346002B05D0984BD3E90023C7E935
:102B400008231FE197ED000B01F09EFA0346002BCE
:102B500005D0924BD3E90023C7E9082312E197ED92
:102B6000020B01F06DFA0346002B05D08B4BD3E925
:102B70000023C7E9082305E14FF000024FF00003EE
:102B8000D7E90201FEF7B4F90346002B0CD0D7E9D0
:102B900000234FF000004FF00001FEF76BF80246F3
:102BA0000B46C7E90823EDE097ED000B01F048FA6A
:102BB0000346002B29D001231C464FF000024FF0A2
:102BC0000003D7E90001FEF79DF90346002B01D170
:102BD00000231C46E4B201231D464FF000024FF0D3
:102BE0000003D7E90201FEF78DF90346002B01D15E
:102BF00000231D46EBB26340DBB2002B00F0C28025
:102C0000D7E90023C7E90823BCE097ED001B97ED47
:102C1000020B05F0EDF9B0EE407AF0EE607A87ED48
:102C2000087B01231C464FF000024FF00003D7E958
:102C30000801FEF75DF90346002B01D100231C4675
:102C4000E3B2FB77FB7F002B5ED197ED000B05F025
:102C50004BF953EC102BD7E90001FEF771F903464D
:102C6000002B51D0D7E90023D7E90201FEF702F883
:102C700002460B4643EC172BB0EE470AF0EE670A0C
:102C800005F026F9B0EE407AF0EE607A87ED047B2D
:102C90004FF00002424BD7E90401FDF70BFD02465D
:102CA0000B4643EC172BB0EE470AF0EE670A05F02F
:102CB0001BF953EC102BD7E90401FDF7F9FC024690
:102CC0000B4643EC172BB0EE470AF0EE670A05F00F
:102CD000FFF855EC104B4FF00002324BD7E90401DE
:102CE000FDF79EFE02460B4601210E462046294670
:102CF000FEF726F90346002B01D100231E46F3B24E
:102D000083F00103DBB2FB77FB7F002B0CD04FF08D
:102D100000024FF00003D7E90001FDF781FE0246F3
:102D20000B46C7E908232DE001231C464FF00002A3
:102D30004FF00003D7E90201FEF7E4F80346002B49
:102D400001D100231C46E4B201231D464FF00002CE
:102D50004FF00003D7E90001FEF7D4F80346002B3B
:102D600001D100231D46EBB26340DBB2002B09D03A
:102D7000D7E90023D7E90801FDF79CFC02460B4682
:102D8000C7E90823D7E9082343EC172BB0EE470A1D
:102D9000F0EE670A2C37BD46F0BD00BF5010002092
:102DA0000000E03F0000B03C80B584B000AF87ED8C
:102DB000000B97ED000B05F08BF851EC100B4FF06A
:102DC0000002334BFEF79EF80346002B50D04FF025
:102DD0000002304BD7E90001FEF7A8F80346002BAC
:102DE00017D04FF000022B4BD7E90001FDF762FC32
:102DF00002460B4643EC172BB0EE470AF0EE670A8B
:102E000005F072F8B0EE407AF0EE607A87ED027B62
:102E100032E04FF00002204BD7E90001FEF790F8B6
:102E20000346002B0CD04FF000024FF00003D7E90F
:102E30000001FDF7F5FD02460B46C7E902231BE042
:102E40004FF00002134BD7E90001FDF731FC0246B9
:102E50000B4643EC172BB0EE470AF0EE670A04F07E
:102E6000B7FFB0EE407AF0EE607A87ED027B03E0C8
:102E7000D7E90023C7E90223D7E9022343EC172B44
:102E8000B0EE470AF0EE670A1037BD4680BD00BFBE
:102E9000000030430000E03F0000E0BF80B485B098
:102EA00000AF78600123FB737B68002B04DD7B6837
:102EB000032B01DC7B68FB73FB7B18461437BD4694
:102EC0005DF8047B704780B485B000AF7860012363
:102ED000FB737B68002B04DD7B68032B01DC7B68C4
:102EE000FB73FB7B18461437BD465DF8047B7047C7
:102EF00080B485B000AF78600023FB737B68002B43
:102F000004DB7B68032B01DC7B68FB73FB7B1846CF
:102F10001437BD465DF8047B7047000080B582B071
:102F200000AF094BD3F830317B60074B0022C3F868
:102F3000302100F063F8044A7B68C2F8303100BFEA
:102F40000837BD4680BD00BFF80E002080B500AF39
:102F50001A4B012283F84820184B93F84230012B7A
:102F600008D1164B012283F84920144B002283F824
:102F70004A2007E0114B002283F849200F4B012221
:102F800083F84A200D4B002283F845200B4B00228A
:102F900083F84620094B93F84230013B074ADB0097
:102FA0001344D3E900230549C1E90E23034B012251
:102FB00083F84720FFF7B2FF00BF80BDA80E0020B6
:102FC00080B582B000AF094BD3F830317B60074B3E
:102FD0000122C3F8302100F011F8044A7B68C2F8DE
:102FE000303100BF0837BD4680BD00BFF80E00205D
:102FF00080B500AFFFF7E4FF00BF80BD98B500AF1C
:10300000BF4B93F83B31002B0CD1BD4B012283F811
:103010003B21BB4B022283F83821B94B052283F8B0
:103020003A2101E2B64B93F83831012B03D0022B41
:1030300000F0E780F8E1B24BD3F83031002B0CD12F
:10304000AF4B002283F83921AD4B022283F838219F
:10305000AB4B052283F83A21E3E1A94B93F83931D0
:10306000013B032B00F2DD8101A252F823F000BFE7
:1030700081300000EB30000061310000B131000010
:10308000A04B012283F848209E4B93F84230012B3D
:1030900008D19C4B012283F849209A4B002283F8E7
:1030A0004A2007E0974B002283F84920954B0122E4
:1030B00083F84A20934B002283F84520914B00224D
:1030C00083F846208F4B93F84230013B8D4ADB005A
:1030D0001344D3E900238B49C1E90E23894B012214
:1030E00083F84720FFF71AFF8AE0864B93F84230B7
:1030F000012B02D0022B0DD019E0814B032283F863
:1031000039217F4B0022C3F834217E4B012283F802
:10311000452024E07A4B042283F83921784B0022A1
:10312000C3F83421774B012283F8462017E0754914
:103130004FF000024FF00003C1E90E23714B002253
:1031400083F847206F4B012283F848206D4B002203
:1031500083F849206B4B002283F84A2000BF4FE0E0
:10316000674BD3F83441674B93F84230013B654AD3
:103170000433DB00134493ED007BB0EE470AF0EE1E
:10318000670A04F025FE53EC102B10461946FDF794
:103190001FFF03469C4206D3594B012283F8392175
:1031A000FFF7D4FE2CE0574B012283F8452027E09F
:1031B000534BD3F83441534B93F84230013B514ABF
:1031C0000433DB00134493ED007BB0EE470AF0EECE
:1031D000670A04F0FDFD53EC102B10461946FDF76D
:1031E000F7FE03469C4206D3454B012283F8392162
:1031F000FFF7ACFE03E0434B012283F8462000BFFB
:103200000FE13F4BD3F83031012B2FD13C4B002243
:1032100083F83C213A4B002283F83D21384B0022B1
:1032200083F83E21364B002283F83A21344B0122A9
:1032300083F83821324B022283F8392131494FF08B
:1032400000024FF00003C1E90E232E4B002283F849
:1032500047202C4B012283F848202A4B002283F878
:103260004920284B002283F84A20DCE0244B93F8C5
:103270003A31013B052B00F2D68001A252F823F02F
:1032800099320000373300005133000091330000C1
:1032900097330000C5330000194BD3F83441194B64
:1032A000D3E90C01174B93F84130013B154A023327
:1032B000DB001344D3E90023FDF7FAF902460B467D
:1032C00043EC172BB0EE470AF0EE670A04F080FDDE
:1032D00053EC102B10461946FDF77AFE03469C422C
:1032E00012D3074B002283F83C21054B042283F8BC
:1032F0003A21034B012283F83E21FFF779FE8AE051
:10330000F80E0020A80E0020484B93F84130013BF6
:10331000464A134493F84330002B7CD0444B0022A0
:1033200083F83C21424B022283F83A21404B012290
:1033300083F83D216FE03E4B002283F83D213C4B5A
:10334000062283F83A213A4B0022C3F8342167E081
:10335000374BD3F83441354B93ED0C7BB0EE470A35
:10336000F0EE670A04F034FD53EC102B10461946BA
:10337000FDF72EFE03469C424FD32D4B042283F8CB
:103380003A212B4B012283F83E21FFF731FE44E026
:10339000FFF716FE44E0254B93F84030002B08D091
:1033A000234B062283F83A21214B0022C3F8342113
:1033B00036E01F4B032283F83A211D4B0022C3F84D
:1033C00034212DE01A4BD3F83441184B93F8413097
:1033D000013B164A0233DB00134493ED007BB0EE51
:1033E000470AF0EE670A04F0F3FC53EC102B10468A
:1033F0001946FDF7EDFD03469C4210D30C4B01220C
:1034000083F83A210A4B0022C3F83421084B0122E9
:1034100083F83C2103E000BF05E000BF03E000BFEC
:1034200001E000BF00E000BF00BF98BDA80E002073
:10343000F80E00200000000090B585B000AFBC4B36
:10344000D3E90623BB49C1E90023B94BD3E90623DD
:10345000B849C1E90223B74BD3E90001B44BD3E922
:103460000823FDF7DDFA02460B46B249C1E9002305
:10347000B04BD3E90201AE4BD3E90823FDF7D0FAF4
:1034800002460B46AB49C1E90223A94BD3E90A2303
:10349000A849C1E90423A64BD3E90A23A549C1E9F8
:1034A0000623A34BD3E90C23A249C1E90823A04B6F
:1034B000D3E90C239F49C1E90A239F4BD3E90601B5
:1034C0009B4BD3E90423FDF713FD0346002B05D1E5
:1034D000974BD3E904239849C1E90623964B1B690E
:1034E0001846FFF78BF803461A46924B83F84320A1
:1034F000914BD3E90E018E4BD3E90223FDF7F8FC83
:103500000346002B05D18A4BD3E902238A49C1E93E
:103510000E23894B1B6B1846FFF770F803461A46BB
:10352000844B83F84420824B1B881846FDF7FEF934
:1035300002460B469FED761B43EC102BFFF7CEFAAD
:10354000B0EE407AF0EE607A87ED027B784B1B8814
:103550001846FDF7EBF902460B469FED6F1B43EC57
:10356000102BFFF7BBFA51EC100BD7E90223FDF744
:103570009FF802460B46104619464FF000026F4B6B
:10358000FDF778FB02460B4643EC172BB0EE470ADB
:10359000F0EE670AFFF708FC53EC102B10461946B3
:1035A000FDF7EEFC03461846FFF778FC03461A4683
:1035B000604B83F842205E4B1B881846FDF7B6F936
:1035C00002460B469FED561B43EC102BFFF786FA85
:1035D000B0EE407AF0EE607A87ED007BD7E9002309
:1035E000D7E90201FDF764F802460B46104619467A
:1035F0004FF00002524BFDF73DFB02460B4643ECF9
:10360000172BB0EE470AF0EE670AFFF7CDFB53EC3D
:10361000102B10461946FDF7B3FC03461846FFF77A
:1036200052FC03461A46434B83F84120404B1B880B
:103630001846FDF77BF902460B469FED3B1B43EC1A
:10364000102BFFF74BFA53EC102BD7E90001FDF7D5
:103650002FF802460B46104619464FF00002394B30
:10366000FDF708FB02460B4643EC172BB0EE470A6A
:10367000F0EE670AFFF798FB53EC102B1046194643
:10368000FDF77EFC03461846FFF732FC03461A4658
:10369000284B83F84020264BD3E91001244BD3E973
:1036A0000E23FDF7BDF902460B462249C1E90C2362
:1036B000214BD3F83431B3F1FF3F06D01E4BD3F882
:1036C000343101331C4AC2F834311B4B4FF0FF3206
:1036D000C3F83021FFF792FC174BD3F8F030154AAE
:1036E00092F8452011461846FEF7C0FF124BD3F85A
:1036F000DC30104A92F8462011461846FEF7B6FF15
:103700000D4BD3F82C310B4A92ED0E7B1CE000BF21
:103710000000000000408F40000000000088C3400F
:10372000000000000000594000000000000024409C
:1037300040040020A80E0020F80E002000408F401A
:103740000000594000002440B0EE470AF0EE670A3E
:103750001846FFF7E9F8394BD3F8C830384A92F8E1
:10376000472011461846FEF781FF344BD3F8B4309A
:10377000334A92F8482011461846FEF777FF2F4B40
:10378000D3F8A0302E4A92F8492011461846FEF789
:103790006DFF2A4BD3F88C30294A92F84A20114603
:1037A0001846FEF763FF254B9A6F254B93F8403080
:1037B000002B14BF01230023DBB219461046FEF78D
:1037C00055FF1E4BD3F818411E4BD3E914011D4B76
:1037D000D3E91223FDF724F902460B4643EC172BDD
:1037E000B0EE470AF0EE670A2046FFF79DF8134B4C
:1037F000D3F80441134BD3E91601124BD3E912233A
:10380000FDF70EF902460B4643EC172BB0EE470AC4
:10381000F0EE670A2046FFF787F8084B5B6E002141
:103820001846FEF723FF054B1B6D00211846FEF7D7
:103830001DFF00BF1437BD4690BD00BFF80E00202D
:10384000A80E00204004002080B584B000AF0820FE
:1038500000F0B2FBB04B012283F84120AE4B0122B5
:1038600083F84220AD4B4FF0FF32C3F83021AB4B11
:1038700000221A70AA4BD3E90423A849C1E9062300
:10388000A64BFB60A54B01225A6000210020FEF7E9
:1038900045FE0246FB681A61A04B01221A729F4B3B
:1038A000002283F820209E4BD3E902239B49C1E9E3
:1038B0000E239C4BFB60994B01225A620021012090
:1038C000FEF72CFE0246FB681A61944B012283F836
:1038D0002820924B002283F8E020934BBB608F4B53
:1038E0000122C3F8E42001210820FEF717FE02465A
:1038F000BB681A61894B012283F8E820874B0022BC
:1039000083F8CC20894BBB60844B0122C3F8D020C4
:1039100001210920FEF702FE0246BB681A617F4BB7
:10392000012283F8D4207D4B002283F81C21804B98
:103930007B607A4B0122C3F820219FED731B9FED22
:10394000740B0520FEF734FF02467B681A61734B47
:10395000D3F82C311846FEF7DDFF704B012283F8B7
:1039600024216E4B002283F8B820724BBB606B4B56
:103970000122C3F8BC2001210220FEF7CFFD024640
:10398000BB681A61654B012283F8C020634B00229B
:1039900083F8A420684BBB60604B0122C3F8A820C9
:1039A00001210A20FEF7BAFD0246BB681A615B4B93
:1039B000012283F8AC20594B002283F890205F4B02
:1039C000BB60564B0122C3F8942001210B20FEF767
:1039D000A5FD0246BB681A61504B012283F898206E
:1039E0004E4B002283F87C20554BBB604B4B012291
:1039F000C3F8802001210C20FEF790FD0246BB6831
:103A00001A61464B012283F88420444B002283F83C
:103A100068204C4BBB60414B0122DA6601210D202E
:103A2000FEF77CFD0246BB681A613C4B012283F81D
:103A300070203A4B002283F80821434B7B60374BC0
:103A40000122C3F80C219FED301B9FED310B0620A6
:103A5000FEF7AEFE02467B681A61304BD3F8183190
:103A60001846FEF757FF2D4B012283F810212B4BF0
:103A7000002283F8F420354B7B60284B0122C3F8E9
:103A8000F8209FED211B9FED220B0320FEF790FEF7
:103A900002467B681A61214BD3F804311846FEF7C1
:103AA00039FF1E4B012283F8FC201C4B002283F8B7
:103AB0005420274BBB60194B01229A650121042039
:103AC000FEF72CFD0246BB681A61144B012283F8F5
:103AD0005C20124B002283F840201E4BBB600F4B32
:103AE00001225A6401210720FEF718FD0246BB6837
:103AF0001A610A4B012283F8482000BF1037BD46E7
:103B000080BD00BFAFF30080000000000000000097
:103B10000000000000409F40A80E0020F80E00208A
:103B200040040020180F0020D80F0020C40F0020F0
:103B300014100020B00F00209C0F0020880F0020E0
:103B4000740F0020600F002000100020EC0F0020F8
:103B50004C0F0020380F002080B500AFB24B1B780F
:103B6000002B0FD1B04B01221A70AF4B5B68012BB9
:103B700008D1AD4B1B7A002B04D0AB4B1B69184608
:103B8000FEF7B3FDA84B93F82030002B11D1A64BC4
:103B9000012283F82020A44B5B6A012B09D1A24BA0
:103BA00093F82830002B04D09F4B1B6B1846FEF770
:103BB0009CFD9D4B93F8E030002B13D19A4B0122D2
:103BC00083F8E020984BD3F8E430012B0AD1964BD0
:103BD00093F8E830002B05D0934BD3F8F03018461B
:103BE000FEF783FD904B93F8CC30002B13D18E4B16
:103BF000012283F8CC208C4BD3F8D030012B0AD192
:103C0000894B93F8D430002B05D0874BD3F8DC30A8
:103C10001846FEF76AFD844B93F81C31002B19D12E
:103C2000814B012283F81C217F4BD3F82031012BDB
:103C300010D17D4B93F82431002B0BD07A4BD3F865
:103C40002C311846FEF7AEFE774BD3F82C311846D0
:103C5000FEF7BEFE744B93F8B830002B13D1724BB5
:103C6000012283F8B820704BD3F8BC30012B0AD165
:103C70006D4B93F8C030002B05D06B4BD3F8C83098
:103C80001846FEF732FD684B93F8A430002B13D191
:103C9000654B012283F8A420634BD3F8A830012B95
:103CA0000AD1614B93F8AC30002B05D05E4BD3F8B2
:103CB000B4301846FEF719FD5B4B93F89030002B9B
:103CC00013D1594B012283F89020574BD3F89430ED
:103CD000012B0AD1544B93F89830002B05D0524B4E
:103CE000D3F8A0301846FEF700FD4F4B93F87C3018
:103CF000002B13D14C4B012283F87C204A4BD3F884
:103D00008030012B0AD1484B93F88430002B05D02A
:103D1000454BD3F88C301846FEF7E7FC424B93F83E
:103D20006830002B11D1404B012283F868203E4BB4
:103D3000DB6E012B09D13C4B93F87030002B04D083
:103D4000394B9B6F1846FEF7D0FC374B93F8083180
:103D5000002B19D1344B012283F80821324BD3F8C0
:103D60000C31012B10D1304B93F81031002B0BD0BC
:103D70002D4BD3F818311846FEF714FE2A4BD3F812
:103D800018311846FEF724FE274B93F8F430002B29
:103D900019D1254B012283F8F420234BD3F8F830B6
:103DA000012B10D1204B93F8FC30002B0BD01E4B75
:103DB000D3F804311846FEF7F5FD1B4BD3F8043158
:103DC0001846FEF705FE184B93F85430002B11D11E
:103DD000154B012283F85420134B9B6D012B09D105
:103DE000114B93F85C30002B04D00F4B5B6E1846E0
:103DF000FEF77BFC0C4B93F84030002B11D10A4BA3
:103E0000012283F84020084B5B6C012B09D1064B43
:103E100093F84830002B04D0034B1B6D1846FEF777
:103E200064FC00BF80BD00BFF80E002080B586B0E6
:103E300000AF4023FB604FF000024FF00003C7E9E2
:103E40000423FB68202B0BD100F020F810EE103A71
:103E50001846FCF78DFD02460B46C7E9042307E030
:103E6000094B7B6000233B60D7E90023C7E90423AB
:103E7000D7E9042343EC172BB0EE470AF0EE670AAC
:103E80001837BD4680BD00BF0000F07F80B483B00E
:103E900000AF4FF0FF437B607B6807EE903AB0EED7
:103EA000670A0C37BD465DF8047B704780B586B065
:103EB00000AF4023FB604FF000024FF00003C7E962
:103EC0000423FB68202B0BD100F020F810EE103AF1
:103ED0001846FCF74DFD02460B46C7E9042307E0F0
:103EE000094B7B6000233B60D7E90023C7E904232B
:103EF000D7E9042343EC172BB0EE470AF0EE670A2C
:103F00001837BD4680BD00BF0000F0FF80B483B00D
:103F100000AF064B7B607B6807EE903AB0EE670A15
:103F20000C37BD465DF8047B704700BF000080FF82
:103F300080B586B000AF4023FB604FF000024FF029
:103F40000003C7E90423FB68202B0BD100F020F805
:103F500010EE103A1846FCF70BFD02460B46C7E977
:103F6000042307E0094B7B6000233B60D7E9002373
:103F7000C7E90423D7E9042343EC172BB0EE470A23
:103F8000F0EE670A1837BD4680BD00BF0000F8FF9D
:103F900080B483B000AF4FF000037B60054B7B60C3
:103FA0007B6807EE903AB0EE670A0C37BD465DF8C5
:103FB000047B70470000C0FF80B582B000AF78601E
:103FC000FFF7B6FFB0EE407AF0EE607A164B83ED65
:103FD000007BFFF7DDFFF0EE407A144BC3ED007A73
:103FE000FFF724FFB0EE407AF0EE607A104B83EDDD
:103FF000007BFFF74BFFF0EE407A0E4BC3ED007AEB
:10400000FFF754FFB0EE407AF0EE607A0A4B83ED92
:10401000007BFFF77BFFF0EE407A084BC3ED007AA0
:1040200000BF0837BD4680BD501000206010002042
:104030004010002058100020481000205C10002084
:1040400080B582B000AF87ED000B0D4BD3E90023A4
:10405000D7E90001FCF74CFF0346002B09D1094BBF
:10406000D3E90023D7E90001FCF742FF0346002B08
:1040700001D0012300E0002318460837BD4680BD6B
:10408000401000204810002080B586B000AF87EDBA
:10409000000B0023FB7540233B613B69202B0BD1B8
:1040A000D7E90001FCF7B4FF034600EE103A00F038
:1040B00021F80346FB7515E0D7E90023C7E9022381
:1040C000FA680B4B13400A4A934209D1FB68C3F3C9
:1040D0001303002B02D1BB68002B01D0012300E0A9
:1040E0000023FB75FB7D18461837BD4680BD00BF19
:1040F0000000F07F80B485B000AF87ED010A7B68D7
:10410000FB60FB6803F0FF43B3F1FF4F06D1FB6890
:10411000C3F31603002B01D0012300E00023DBB220
:1041200018461437BD465DF8047B704780B489B0EB
:1041300000AF294BFB60294A294B9A4216D0002335
:10414000FB610AE0264AFB6952F823202349FB69F8
:1041500041F82320FB690133FB61FB689B08FA6986
:104160009A42EFD31F4B1D4A9A6002E01D4B1C4A36
:104170009A601D4BBB611D4B7B611D4BBB60BA68D8
:104180007B69D31AFB6107E07A69531C7B61BB69C9
:10419000591CB96112781A70FB695A1EFA61002B1A
:1041A000F2D1144B3B61144B7B607A683B69D31AA4
:1041B000FB6104E03B695A1C3A6100221A70FB69FA
:1041C0005A1EFA61002BF5D100BF00BF2437BD464F
:1041D0005DF8047B704700BF000000000000000095
:1041E0000000000000ED00E000000020A8BF00007B
:1041F00008CE0000600E0020C840002080B400AF50
:104200006B4BD3F888306A4A43F47003C2F88830A5
:10421000684B4CF22052DA81664B4DF62812DA8157
:10422000644B4FF4E9721A80634B1B78DBB203F0E6
:104230000103002B0FD0614B9B78DBB203F0080326
:10424000002B2ED05D4B9B78DBB25C4A43F0080319
:10425000DBB2937025E05A4B03F581531C331B6886
:10426000574943F0005201F581531C331A60554BF6
:104270001B6903F48073002B13D1524B1B6923F489
:104280007C53504A43F4407313614E4B1B694D4AB3
:1042900043F4807313614B4B1B694A4A23F4007348
:1042A0001361494B2A221A70454B03F5825304339C
:1042B0004FF08A721A60424B1B6823F44023404A35
:1042C00043F4002313603E4B03F5805304331B6813
:1042D00023F440333A4943F4803201F580530433E8
:1042E0001A60374B03F5815318331B68344943F484
:1042F000007201F5815318331A60344B9B6C334ABA
:1043000023F0807323F4E0639364314B00221A722C
:104310002F4B5B78DBB223F06003DBB22C4A43F017
:104320002003DBB253702B4B80221A70284B0022E3
:104330001A73274BBA221A7000BF254B9B79DBB248
:1043400003F01003002BF8D1214BDB78DBB2204ABD
:1043500003F01F03DBB2D3701D4B13221A711C4BE9
:1043600018225A711A4B5B79DBB2194A43F04003A9
:10437000DBB2537100BF164B9B79DBB203F04003F5
:10438000002BF8D0124B1B78DBB2114A03F03F032D
:10439000DBB2137000BF0E4B9B79DBB203F00C0352
:1043A0000C2BF8D100BF00BFBD465DF8047B704701
:1043B00000ED00E00020054000F0074000D007407D
:1043C0000070044000D0034000E00740009004402B
:1043D000004006400050064080B483B000AF9C4BC4
:1043E0001B78DBB203F0C003002B40F0DE80984B5B
:1043F0005B79DBB203F04003002B40F0B980944BB3
:104400001B78DBB203F00403002B4ED1904B1B7BD7
:10441000DBB203F00303002B02D0012B03D006E034
:104420008C4B7B6006E04FF400437B6002E08A4BDC
:104430007B6000BF864B5B78DBB203F03003002B60
:1044400023D0834B1B7BDBB203F00303012B1CD077
:104450007F4B1B78DBB203F03803302B05D0382BB1
:1044600007D14FF4C0637B800EE04FF4A0637B80E4
:104470000AE0774B1B78DBB2DB0803F0070320224E
:1044800002FA03F37B8000BF09E0714B1B78DBB2BB
:10449000DB0803F00703012202FA03F37B807B8829
:1044A0007A68B2FBF3F37B6002E04FF400437B6079
:1044B000674BDB78DBB203F0E003E02B51D0E02B5D
:1044C00000F2B080C02B45D0C02B00F2AB80A02BF7
:1044D00039D0A02B00F2A680802B2DD0802B00F2AB
:1044E000A180602B21D0602B00F29C80402B15D046
:1044F000402B00F29780002B02D0202B07D091E0B8
:104500007A6813469B001344DB017B608BE07A687A
:1045100013469B0013441B027B6084E07A681346B9
:104520001B019B1ADB017B607DE07A6813469B00D0
:1045300013445B027B6076E07B684FF4377202FBCA
:1045400003F37B606FE07B684FF4B76202FB03F319
:104550007B6068E07B6840F6950202FB03F37B60BA
:1045600061E07B6840F6713202FB03F37B605AE046
:10457000374B1B79DBB29BB203F01F039BB20133B5
:104580007B807B88334AB2FBF3F37B60304B5B79F3
:10459000DBB29BB203F01F039BB218337B807A8897
:1045A0007B6802FB03F37B603DE0294B1B78DBB2A9
:1045B00003F0C003402B1AD1254B5B78DBB203F02C
:1045C0000103002B03D14FF400437B602BE0204B11
:1045D0001B7ADBB25B0803F00703012202FA03F344
:1045E0007B807B881D4AB2FBF3F37B601BE0184B9A
:1045F0001B78DBB203F0C003802B23D1144B1B7B51
:10460000DBB203F00303002B02D0012B03D006E042
:10461000104B7B6007E04FF400437B6003E00E4BE0
:104620007B6000E000BF0E4B03F5825304331B6830
:104630001B0F03F00F0301337A68B2FBF3F3094A4F
:10464000136000E000BF0C37BD465DF8047B704787
:104650000040064080F0FA02006CDC0200093D00D8
:1046600000700440A004002080B584B000AFF86062
:10467000B9601346FB71BB681F2B05D90D4B0E4A61
:10468000FF210E4803F040FEFB68BA6853F8223061
:1046900023F0807323F4E063FA79120202F4E062FB
:1046A00043EA0201FB68BA6843F8221000BF1037E2
:1046B000BD4680BD3CAF0000BCAF000048AF00006D
:1046C00080B483B000AF78600B46FB707B68FA78EB
:1046D0001A7000BF0C37BD465DF8047B70470000C0
:1046E00080B584B000AF3B4600221A605A609A60E1
:1046F000DA60064B3B6002237B723B461946002082
:1047000002F0DEF800BF1037BD4680BD80F0FA022F
:1047100080B584B000AF074A3B1D07CA83E8070095
:104720003B1D1946002002F017F900BF1037BD46A7
:1047300080BD00BF80AF000080B500AF2A210848CF
:10474000FFF7BEFF002212210648FFF78DFFFFF79B
:10475000C7FFFFF7DDFF044802F054F900BF80BD3A
:1047600000E0074000900440A4AF000080B582B094
:1047700000AF01F0E1FF0023FB7106E0FB79184672
:1047800002F0B8F9FB790133FB71FB79042BF5D901
:10479000FFF7D2FF00BF0837BD4680BD80B500AF30
:1047A000002002F0E9F900BF80BD80B500AF012014
:1047B00002F0E2F900BF80BD80B500AF022002F038
:1047C000DBF900BF80BD80B500AF032002F0D4F953
:1047D00000BF80BD80B500AF042002F0CDF900BF5E
:1047E00080BD80B500AF052002F0C6F900BF80BDD6
:1047F00080B500AF062002F0BFF900BF80BD80B5D4
:1048000000AF072002F0B8F900BF80BD80B500AF4F
:10481000082002F0B1F900BF80BD80B500AF0920CB
:1048200002F0AAF900BF80BD80B500AF0A2002F0F7
:10483000A3F900BF80BD80B500AF0B2002F09CF94A
:1048400000BF80BD80B500AF0C2002F095F900BF1D
:1048500080BD80B500AF0D2002F08EF900BF80BD95
:1048600080B500AF0E2002F087F900BF80BD80B593
:1048700000AF0F2002F080F900BF80BD80B500AF0F
:10488000002002F091F900BF80BD80B500AF00208C
:1048900003F054F800BF80BD80B500AF012003F0E5
:1048A0004DF800BF80BD80B500AF022003F046F890
:1048B00000BF80BD80B500AF032003F03FF800BF0C
:1048C00080BD80B500AF042003F038F800BF80BD84
:1048D00080B500AF052003F031F800BF80BD80B483
:1048E00000AFFEE780B400AFFEE780B400AFFEE7A4
:1048F00080B400AFFEE780B400AFFEE780B400AF45
:10490000FEE780B400AFFEE780B400AFFEE780B4FE
:1049100000AFFEE780B400AFFEE780B400AFFEE773
:1049200080B400AFFEE780B400AFFEE780B400AF14
:10493000FEE780B400AFFEE780B400AFFEE780B4CE
:1049400000AFFEE780B400AFFEE780B400AFFEE743
:1049500080B400AFFEE780B400AFFEE780B400AFE4
:10496000FEE780B400AFFEE780B400AFFEE780B49E
:1049700000AFFEE780B400AFFEE780B400AFFEE713
:1049800080B400AFFEE780B400AFFEE780B400AFB4
:10499000FEE780B400AFFEE780B400AFFEE780B46E
:1049A00000AFFEE780B400AFFEE780B400AFFEE7E3
:1049B00080B400AFFEE780B400AFFEE780B400AF84
:1049C000FEE780B400AFFEE780B400AFFEE780B43E
:1049D00000AFFEE780B400AFFEE780B400AFFEE7B3
:1049E00080B400AFFEE780B400AFFEE780B400AF54
:1049F000FEE780B400AFFEE780B400AFFEE780B40E
:104A000000AFFEE780B400AFFEE780B400AFFEE782
:104A100080B400AFFEE780B400AFFEE780B400AF23
:104A2000FEE780B400AFFEE780B400AFFEE780B4DD
:104A300000AFFEE780B400AFFEE780B400AFFEE752
:104A400080B400AFFEE7000080B584B000AF7860AE
:104A5000114B1B68002B02D10F4B104A1A600E4BF2
:104A60001B68FB600C4B1A687B6813440C4A93422A
:104A700007D903F06DFC03460C221A604FF0FF3398
:104A800006E0054B1A687B681344034A1360FB6811
:104A900018461037BD4680BD641000200000FF1F7F
:104AA0000000002080B582B000AF7860034800F0BD
:104AB00069F900BF0837BD4680BD00BF880E0020E1
:104AC00098B500AF094B0A4A1A600A4B0A4A1C1DE6
:104AD00013460FCB84E80F0000F0B9F80346054AEF
:104AE0001360064B034A1A6000BF98BD880E002071
:104AF000900E00208C10002010B00000800E0020CE
:104B000080B586B002AF87ED010A38600223FB60F2
:104B1000FFF7D6FF164800F025F90346BB6015489D
:104B200000F020F90346BB60002300930023FA68DD
:104B30001149124800F062F80346BB600023104A96
:104B40000121104800F09BF80346BB60D7ED017AC5
:104B50009FED0D7A67EE877AFCEEE77A17EE901AF2
:104B6000084800F0B3F800BF1037BD4680BD00BF55
:104B7000880E0020800E0020E5290000900E002005
:104B8000A54A00006810002000007A4480B400AFFD
:104B9000FEE700BF80B483B000AF78607B68013B64
:104BA000032B0BD801A252F823F000BFBD4B00002D
:104BB000BD4B0000BD4B0000BD4B000000BFFEE739
:104BC000704700BF704700BF0020002104460D461B
:104BD000084803F0B7FB03F0FBFB2046294600F032
:104BE000B1F90548002100F069FA00F0BFF903F0BF
:104BF000B5FB00007D83000010B0000080B586B0DA
:104C000000AFF860B9607A603B60FB68BA685A60D0
:104C1000FB687A689A60FB680122DA603A68FB6890
:104C20001A61FB680433396A184600F047FA0246F5
:104C3000FB681A60FB681B68002B14BF012300236C
:104C4000DBB27B617B6918461837BD4680BD80B5F5
:104C500000AF00F085FA0346184680BD80B584B0E9
:104C600000AF786000F07CFA0346FB60F86800F063
:104C700083FA0346BB6000BF1037BD4680BD80B5D8
:104C800086B000AFF8607A603B600B46FB72FB6851
:104C900003F10C02FB689A60FB687A685A60FB6853
:104CA0000433F97A3A68184600F070FB0246FB6854
:104CB0001A60FB681B68002B14BF01230023DBB2C2
:104CC0007B617B6918461837BD4680BD80B584B0CE
:104CD00000AF786039607B681B683968184600F05F
:104CE00089FB0346FB60FB6818461037BD4680BD54
:104CF00084B080B582B000AF07F1100C8CE80F00D3
:104D00003B69796A184600F04BFC03467B607B6880
:104D100018460837BD46BDE8804004B0704784B0EF
:104D200080B500AF07F1080C8CE80F00BB68F9698B
:104D3000184600F055FC03461846BD46BDE88040C5
:104D400004B0704780B582B000AF786039607B688E
:104D50004FF0FF323968184600F050FC7868083789
:104D6000BD4680BD80B485B000AF78607B6801220D
:104D70005A600123FB60FB6818461437BD465DF896
:104D8000047B704780B584B002AF78607B681B6895
:104D90007A68526801921A6900920FCBFFF7A8FF58
:104DA000034618460837BD4680BD80B584B002AFC3
:104DB000786039603B681B683A68526801921A69EA
:104DC00000920FCBFFF7ABFF3B685A687B68114638
:104DD0001846FFF7B7FF78680837BD4680BD00006A
:104DE00000B5DFF80CC000DFDFF808C000DFFEE729
:104DF0005D500000755000002DE9F041344C2378DF
:104E000053B1344B1B68FF229A70334A00200123B0
:104E100010702370BDE8F081304B3148196800F004
:104E20000BFD00284CD101F079FB2A4B21781B683F
:104E3000FF229A700029E8D12A4A1368002B44D037
:104E4000556845B12A78002A38D1191D890089B2E0
:104E5000284600F0B5FD244B244A1E68156096B321
:104E60005D68EA1C062A2ED8DF688FB9291D3046F6
:104E70003B463A4601F010FA054620B31C4B1D4A4A
:104E8000681E53F82050AB6A5A631B4B1D60BCE789
:104E90003946134800F0DEFC8046A0B1291D41EAE6
:104EA000072130460023424601F0F6F90546002866
:104EB000E4D141460A4800F0F1FCE6E70D46CAE7B6
:104EC0008520BDE8F0810025DFE71D46C3E700BF70
:104ED000204000206440002021400020ECAF000072
:104EE0005833002004B00000F4AF00004C3F002015
:104EF0001C3F0020E14D0000283F002038B50F4C3A
:104F0000207808B1002038BD0D4D2B6893F824108F
:104F100001F072F92B68DA78FF2A03D19A6A2032FD
:104F200082F309886A682AB101F066FB01232370C5
:104F3000002038BDC5E90023F6E700BF214000206E
:104F40006440002010B5EFF305845CB9EFF31484DE
:104F5000E40703D5DFF810C000DF10BDBDE8104046
:104F6000FFF74ABF822010BDF94D000010B588B090
:104F7000EFF305841CBBEFF3148404F00304022C4C
:104F800024D0032C14D0012C16D008AC84F309884B
:104F9000114C2478E40715D4032484F31488BFF358
:104FA0004F8FBFF36F8FDFF834C000DF08B010BD44
:104FB000094C2478E407F6D5FF2008B010BD822004
:104FC00008B010BD022484F31488E8E7024C24786A
:104FD000E407E8D4E0E700BFDCAF0000FD4E0000CE
:104FE00098B3F8B5066876B34768FB1C062B2AD839
:104FF000C26804460D46BAB11146154800F02AFCB5
:10500000064600B36268E1682068043242EA012182
:105010002B46324601F040F9044660B931460C484F
:1050200000F03CFC2046F8BD0B463046391D01F02F
:1050300033F9044638B1601E064B074A53F8200086
:10504000836A5A63F8BD0020F8BD0020704700BF96
:10505000583300201C3F0020E14D000008B501F04E
:10506000C3F818B10138024B53F8200008BD00BF47
:105070001C3F0020D0B1820718D138B50478BCB9E4
:10508000C28C0346C0785AB1DD6A01F069F9FF2885
:1050900010D04DB12946084800F000FC204638BD2C
:1050A00001F05EF9FF2805D0002038BD8020704750
:1050B000802038BD812038BD58330020F8B5EFF38B
:1050C00005848CB9EFF31484E40702D41F4C2478D0
:1050D00064B1DFF888C000DFF8BD0B463046391DEB
:1050E00001F0DAF8044640BB0020F8BD0028FBD0F0
:1050F0000668002EF8D04768FB1C062BF4D8C2685F
:105100000D460446002AE8D01146114800F0A2FBE3
:1051100006460028E8D06268E1682068043242EA66
:1051200001212B46324601F0B7F8044628B9314632
:10513000074800F0B3FB2046F8BD601E054B064A49
:1051400053F82000836A5A63F8BD00BF2140002055
:10515000583300201C3F0020E14D0000E14F0000CB
:1051600010B5EFF305841CB9DFF808C000DF10BDEF
:10517000002010BD5D50000010B5EFF305841CB990
:10518000DFF808C000DF10BD822010BD75500000A0
:10519000A0B103689BB143688BB101290ED830B42C
:1051A0000A4C24686CB11C795CB9012559711D71D8
:1051B0001C60C3E9042030BC184670470023184621
:1051C00070470023184630BC704700BF283F0020BE
:1051D000820727D130B3002951D0F8B5314B1A6876
:1051E000002312F1FF3643F1FF3704464FF47A7083
:1051F000E0FB016730463946FBF75AFF2379012B64
:1052000012D0022B0CD1284D2A684AB1944238D0D2
:10521000114602E09C4228D019460B68002BF9D1B8
:105220008120F8BD802070471F4DE06002232A686E
:105230002371002A2AD09668B04206D22CE09D68DD
:105240008D420BD808462E461A461368811B002B48
:10525000F5D12360A16014600020F8BDA1609968B9
:105260002360081A06449E60F5E723680B602368F4
:10527000002BE0D09968A66831449960D9E7862070
:10528000704723682B600BB11A46F3E70023A06038
:1052900023602C600020F8BDA06093682260181A7B
:1052A0009060F6E7E0AF000024400020830704D1BF
:1052B00030B1D0E9041318687047002001467047E8
:1052C000014670472DE9F8432E4F3C68002C37D03B
:1052D000A368013BA360002B32D1DFF8AC902668B5
:1052E000D9F800503E6025B195F80080B8F1010F63
:1052F00017D00420FFF74EFCA2609A682360551B6C
:1053000065449D600460DEB1B368CBB9D9F8005044
:1053100033683B60002DECD02A78012AE9D134466D
:105320001E46284600F0ACFB0028E2D02846214665
:1053300000F0AAFB6379012B04D084F80480E2E733
:10534000BDE8F8833868E56890B1D0F808C06545D5
:1053500006D211E099689142CED815468C4618467F
:105360000368A5EB0C02002BF4D12360A260C9E70F
:105370002060A5603C60C6E7A560836820605D1B77
:105380008560F7E7244000204C3F002030B5EFF364
:1053900005840CBBEFF31484E40702D4124C247888
:1053A0002CB1DFF84CC000DF0346184630BDC0B159
:1053B0000368002BF9D04368002BF6D001290ED8E2
:1053C0000A4D2D6845B11D794DB901241D605971F3
:1053D000C3E904201C71E8E70023184630BD2346CA
:1053E000E3E70346E1E700BF21400020283F00201B
:1053F0009151000010B5EFF305841CB9DFF808C027
:1054000000DF10BD822010BDD151000008B50B4D4A
:10541000EFF305804FF0FF310028F9D12868DFF85D
:1054200020C000DF1028F3D10846DFF818C000DFE5
:1054300004460028ECD00846A047E9E74C3F00208E
:1054400029560000AD52000010B570B183070CD191
:10545000037853B90B0C1B043BB9034688B21C8B71
:10546000D97800F029FD204610BD4FF000442046B9
:1054700010BD00BF10B570B183070CD1037853B9CC
:105480000B0C1B043BB9034688B21C8BD97800F087
:105490003FFD204610BD4FF00044204610BD00BF28
:1054A0002DE9F0414FEA10484FEA0848B8F1000FE3
:1054B00048D10D46044640B380B291B14A1C5DD03C
:1054C000344B994263D8344B1A684FF6FE714FF44F
:1054D0007A73561E03FB0563B3FBF2F38B4200D8CD
:1054E00099B2012200F0C6FC022844D0002D14BF5E
:1054F00040240024002001460E460F464546204623
:10550000294632463B46BDE8F08159B34B1C38D0A2
:10551000204B994238D8204B1A684FF6FE714FF451
:105520007A73501E03FB0505B5FBF2F58D4200D8DA
:10553000A9B200224FF6FF7000F09CFC02280BD0AD
:105540004024D7E7002586242E462F4620462946AC
:1055500032463B46BDE8F081104B1B680824B3F887
:105560001A80C7E742464FF6FF7000F083FC02281E
:10557000F2D04446BEE7A0460824BBE74FF6FF71D1
:10558000AFE74FF6FF71D4E74FF6FE71D1E74FF664
:10559000FE71A6E700093D00E0AF00006440002076
:1055A00070B5EFF305852DB9DFF830C000DF044694
:1055B000204670BD044668B183070BD103784BB910
:1055C0000B0C1B0433B988B2E178248B00F0ACFCDF
:1055D000204670BD4FF00044204670BD4954000085
:1055E00010B5EFF305841CB9DFF80CC000DF10BD67
:1055F0004FF0004010BD00007554000070B5044627
:10560000EFF305854DB908461146DFF818C000DFF5
:10561000C4E90001A260204670BD822303602046D9
:1056200070BD0000A1540000F0B5034685B000280D
:105630003AD00278012A2AD10C4600293ED04A1CD1
:1056400049D0264A91422CD8254A11684FF47A75E0
:10565000481E4FF6FE7205FB0404B4FBF1F49442BD
:1056600000D8A2B2184602A900F0B6F9012830D03D
:105670000020024603461020029904460D461646B5
:105680001F462046294632463B4605B0F0BD002560
:1056900080242E462F462046294632463B4605B0FA
:1056A000F0BD4FF6FE72DDE705460646074680244C
:1056B0002046294632463B4605B0F0BD0A4602A9BF
:1056C00000F08AF90128D3D1002002460346204683
:1056D000D2E74024F8E74FF6FF72C3E700093D0028
:1056E000E0AF0000274B2DE9F047C58CD3F80090C0
:1056F000C66AAD0808BFC9F38D0506EB85046307CC
:1057000048BF043C8046A4F140074FF080738A46AE
:1057100044F8081C44F8043C38463822002103F0C1
:1057200035F9D8F81C3044F8203C19F0805F3B462E
:10573000C8F82870C8F830A01FD0112D1DD9103D11
:105740006D08012D12D06FF03702A2EBC502144490
:105750004FF0CC3243F8042C43F8082DA342F9D182
:10576000C5EB457507EBC50303F108073B1F9E42D8
:105770003CBF4FF0CC3347F8043C034B3360BDE8EB
:10578000F08700BFD4AF0000A52E5AE290F8252084
:10579000836A12B160331960704720331960704713
:1057A00010B490F82540836A2CB16033C3E900122D
:1057B0005DF8044B70472033C3E900125DF8044BD9
:1057C000704700BF084B1B68DA0107D5074B1B6801
:1057D000DB0703D5064B1B68002B00DB7047054B2E
:1057E00001221A70704700BFFCED00E0800E00E05F
:1057F000000E00E02840002010B4094C2368002B64
:10580000FCD0036B064A23601368002BFCD0C378DE
:105810005DF8044B43EA01239BB21380704700BF3D
:105820007C0000E0034A1368002BFCD0C0B210706B
:10583000704700BF7C0000E0034648B1072907D944
:1058400004390022084418605A5010465A607047C4
:1058500001207047F0B1F1B10B3170B4036821F051
:10586000030603E01968184649B10B46446802195B
:105870009D1AAE42F6D82CB9466000F108010846E0
:1058800070BC704702F10801C2E90036026070BCCA
:105890000846704701460846704700BFC0B1B9B11D
:1058A000083988421DD010B404689CB1A1421CD0B4
:1058B000236823B90EE01A681C465AB11346994270
:1058C000F9D15CB11B68236000205DF8044B704780
:1058D0000120704701205DF8044B7047002058609C
:1058E000F3E7034600205860704723460446E9E783
:1058F000002A30B41FDB033222F003020C24BAB1B9
:1059000013198B4214D8044401448D1AA3189D42E4
:10591000C0E90041826015D3002100E003469818D9
:10592000854263501144F9D20020186030BC7047A2
:10593000012030BC704722F00042073222F00702FB
:105940001024DCE72346EFE7EFF3108372B602681A
:1059500003F001030AB11168016003B962B6104691
:10596000704700BF81420DD343688B420AD9EFF3E1
:10597000108372B602680A60016013F0010003D15F
:1059800062B670470120704700207047426882B1BC
:1059900010B500F01DF9044600F032FA01216170E3
:1059A0002046FFF7F3FE21460448BDE8104000F012
:1059B000E7B8428801324280704700BF3040002083
:1059C0001039002389080122C18102808370C0E957
:1059D00001338381704700BF38B5838904467BB9A2
:1059E00015465AB1254A4368116823B300F0C8F838
:1059F0002846082100F0D0FB012038BD012038BD29
:105A00004389C289181D01339BB254F820000860F5
:105A10009A42638104BF00236381636813B1637892
:105A2000022B0ED0EFF3108372B6A389013BA38142
:105A300062B6002038BD01224160C1E901304270E8
:105A4000D6E7204600F0C4F800210546FFF79EFE89
:105A50002389E289E869191D01339BB29A4244F80F
:105A60002100238104BF00232381284600F0C8F9C8
:105A7000284600F055FB002038BD00BF64400020E0
:105A8000C2898089101A704708B500F0D1F9BDE8C5
:105A9000084000F083BA00BF426870B503464AB1BF
:105AA0004578022D0E4604463DD0032D1AD0012D17
:105AB00030D070BD8489C08984425AD2188904309C
:105AC00043F82010EFF3108172B699890131998162
:105AD00062B61989D889013189B288421981E8D121
:105AE0001A8170BD0846FFF72FFF05460028E0D059
:105AF000204600F06DF829460446FFF747FE0123D3
:105B00006370204600F07CF921461C48BDE87040D7
:105B100000F036B800F05CF8044632461021FFF77A
:105B20003FFE6570EDE700F053F800210546FFF7F2
:105B30002DFE2389EA69043344F82320EFF3108310
:105B400072B6A3890133A38162B62389E289013346
:105B50009BB29A42238104BF00232381012328465C
:105B60006B7000F04DF929460448BDE8704000F024
:105B700007B80320BDE87040FFF70CB830400020A4
:105B800030B4057842688C78013DEDB2EAB1937883
:105B9000A34204D20FE0987884420ED81A46536884
:105BA000002BF8D10023022D4B60516000D9002258
:105BB0008A6030BC704713460246022D4B6051602C
:105BC000F5D8996030BC8A6070470246EAE700BFAA
:105BD00002784368013A59684160022A07D811B136
:105BE000002288605A6000229A601846704700229E
:105BF0005A601846704700BF034B5A684260002243
:105C000058608260704700BF30400020816830B427
:105C100000292FD00B780A461BB992681378002B05
:105C2000FBD044684C604568546805B1A960013BED
:105C30008578D9B2002C3AD0A378AB4204D20FE0D9
:105C40009A7895420ED81C466368002BF8D1002341
:105C50000229436060600AD90023836030BC70472A
:105C600023461446022943606060F5D8986084603A
:105C700030BC70474378012BF0D10E494C68A042EC
:105C80000DD04CB1626890420FD02AB1536898424F
:105C900006D01A46002AF9D10B78064AC7E70A4609
:105CA000456855600B78034AC1E72246F8E7144679
:105CB000CDE700BF3040002070B4164EF36823B328
:105CC000B58AA9422A4602D821E0A4B123469D8A7A
:105CD000DC682A449142F8D895B2C460D860C268A2
:105CE000036102B110616A1A82829A8A551B2944A3
:105CF000998270BC7047891A89B20022C26070BC58
:105D0000D86003619982828270473346F5E71C466A
:105D10003346E2E7484000202DE9F0432A4DEB6886
:105D2000002B4AD0A88A013880B2A882002844D12A
